:020000040000FA
:100000000C9471010C9499010C9499010C94960F25
:100010000C94960F0C94960F0C9499010C949901E2
:100020000C9499010C9499010C9499010C94DA0E9A
:100030000C9499010C9499010C9499010C949901D8
:100040000C94380E0C9499010C94A80E0C94820E0A
:100050000C9499010C9499010C9499010C949901B8
:100060000C9499010C94990100407A10F35A00A065
:10007000724E18090010A5D4E80000E87648170071
:1000800000E40B54020000CA9A3B000000E1F505B1
:10009000000080969800000040420F000000A086FB
:1000A00001000000102700000000E803000000002D
:1000B0006400000000000A000000000001000000D1
:1000C00000002C76D888DC674F0823DFC1DFAE59EB
:1000D000E1B1B796E5E3E453C63AE651997696E87E
:1000E000E6C28426EB898C9B62ED407C6FFCEFBC02
:1000F0009C9F40F2BAA56FA5F490055A2AF75C932D
:100100006B6CF9676DC11BFCE0E40D47FEF520E662
:10011000B500D0ED902E0300943577050080841E45
:10012000080000204E0A000000C80C333333330FA0
:10013000986E12831141EF8D2114893BE65516CF3D
:10014000FEE6DB18D1844B381BF77C1D901DA4BB49
:10015000E424203284725E228100C9F124ECA1E5FE
:100160003D27FF060021001B011100000045016A28
:10017000C80201000800433B0E280A051F3B0B4341
:100180003A36280A051F3B0B81070F28073B5465A9
:100190006D70657261747572650081083620083B68
:1001A00048756D6964697479000221592C16012C17
:1001B0003B1F1F4F4E004F4646008356B60E0E01A2
:1001C00039021F506167650006811C75330C3B4482
:1001D0006F6F72206C6F636B00432292280A0108D4
:1001E000450B0B00023B36240C002D3B1F1F4F4ECE
:1001F000004F464600810525220908526564204CBF
:100200004544008104102909085768697465204C29
:100210004544008105382A0908477265656E204CFF
:1002200045440004554F0E3000491A012A8718181A
:1002300000491F008108643D0A08446F6F72205016
:100240006F736974696F6E00812CA5140C08426588
:100250006C6C008307B50E0E0139021F5061676593
:100260000009023B22240C002D3B1F1F4F4E004F64
:10027000464600023B0E240C002D3B1F1F4F4E0034
:100280004F46460000000000240027002A0000001E
:100290000008000201000003040700000000000045
:1002A00000000000000023002600290000000000DC
:1002B000250028002B0004040404040404040202A2
:1002C00002020202030303030303010204081020D5
:1002D00040800102040810200102040810200E10C2
:1002E000901411241FBECFEFD8E0DEBFCDBF11E0C8
:1002F000A0E0B1E0E2ECF5E302C005900D92A03C75
:10030000B107D9F723E0A0ECB1E001C01D92A936F6
:10031000B207E1F711E0C0E7D1E004C02197FE0188
:100320000E94A219CF36D107C9F70E94B8100C94C9
:10033000D41A0C940000CF93DF93FC01138E128E1D
:10034000118E108E178A168A8DE991E0958F848F11
:1003500084858631E0F52DEB30E0378B268B2BE959
:1003600031E0318F208F2CE231E0338F228F90915A
:100370006800883008F456C021E08E3008F420E090
:1003800081E001C0880F2A95EAF7892B80936800E5
:1003900094852DE630E0983050F02BE630E09E302A
:1003A00030F02CE630E0963110F030E020E0348B75
:1003B000238B292F30E09830B8F581E001C0880FF9
:1003C0009A95EAF7858B848D958D0197F1F7828D4B
:1003D000938D892B21F1A0915402B0915502EA1717
:1003E000FB07E9F0109751F05396CD91DC915497AB
:1003F000988155968C91809589238883868D8E7FF0
:10040000868F1092530210925202F0935502E0939D
:100410005402A389B4898C919589892B8C93DF919F
:10042000CF91089584E0B1CF9E3040F42850310937
:1004300081E001C0880F2A95EAF7C4CF2E50310918
:10044000F7CFCF92DF92EF92FF92CF93DF93C82F37
:10045000809139038C3009F45EC038F48B30F1F0B0
:1004600060E070E080EC9FE74FC085518230C0F7BC
:10047000D09135036D2F70E0762F662766277F7742
:1004800080913603682B90E080E00E9406172DECE7
:100490003CEC4CEC5DE30E94671759C0609135035A
:1004A00070E090E080E00E9406176B017C01D09123
:1004B0003603D7FF0AC0AC019B0160E070E080E822
:1004C0009FEB0E947E186B017C01DF706D2F70E046
:1004D00090E080E00E9408172DEC3CEC4CEC5DE3D2
:1004E0000E946717A70196010E947F18CC2361F034
:1004F00026E636E646EE5FE30E94671720E030E02E
:1005000040E052E40E947F18DF91CF91FF90EF907E
:10051000DF90CF900895D09135036D2F70E090E07B
:1005200080E00E9406176B017C01609136036F70BA
:1005300070E090E080E00E9408172DEC3CEC4CEC61
:100540005DE30E946717A70196010E947F18D7FFFD
:10055000CDCF9058CBCFCF92DF92EF92FF92CF9337
:10056000DF93B0913A03A0E08111AB2F80913B0360
:1005700090E0880F991FAC014E555D4FC09040032D
:10058000D0904103E0904203F090430330E020E03C
:10059000FA01C591D491E881B90190E080E0EB23A4
:1005A000EA130AC02F5F3F4F6C157D058E059F052E
:1005B00078F36FEF7FEFCB01DF91CF91FF90EF905A
:1005C000DF90CF90089590E0FC01E257FD4F249119
:1005D000FC01E653FD4F3491FC01EA54FD4FE491D8
:1005E000EE23C9F0222339F0233001F1A8F42130A1
:1005F00019F1223029F1F0E0EE0FFF1FE455FD4F15
:10060000A591B4918FB7F894EC91611126C0309503
:100610003E233C938FBF08952730A9F02830C9F0BE
:10062000243049F7809180008F7D03C08091800045
:100630008F7780938000DFCF84B58F7784BDDBCF49
:1006400084B58F7DFBCF8091B0008F778093B00011
:10065000D2CF8091B0008F7DF9CF3E2BDACFCF93F0
:10066000DF9390E0FC01E653FD4F24918A549D4FA7
:10067000FC0184918823C9F090E0880F991FFC0148
:10068000EC57FD4FA591B491FC01E455FD4FC59188
:10069000D49161110DC09FB7F8948C91209582235D
:1006A0008C938881282328839FBFDF91CF91089561
:1006B000623051F49FB7F8943C91822F8095832348
:1006C0008C93E8812E2BEFCF8FB7F894EC912E2BE3
:1006D0002C938FBFEACF0F931F93CF93DF93EC013F
:1006E000162F042F1B821A8288EE93E0A0E0B0E060
:1006F0008C839D83AE83BF838AE391E09983888353
:100700001F8A1E8A198E188E1B8E1A8E1D8E1C8EA5
:100710006E8D6E7F6D7F6E8F6695617081E068274C
:10072000842F0E94E30261E0802F0E942F03802F1C
:1007300090E0FC01E653FD4FE491E88BFC01EA54A4
:10074000FD4FE491F0E0EE0FFF1FE455FD4F859162
:1007500094919A8B898B60E0812F0E942F038E8D5C
:1007600081FD04C061E0812F0E94E3021C87812F7C
:1007700090E0FC01E653FD4FE491ED87FC01EA5463
:10078000FD4FE491F0E0EE0FFF1FEE55FD4F859118
:1007900094919F878E87DF91CF911F910F9108953C
:1007A0003FB7F89480914E0290914F02A091500271
:1007B000B091510226B5A89B05C02F3F19F00196B4
:1007C000A11DB11D3FBFBA2FA92F982F8827BC01AB
:1007D000CD01620F711D811D911D42E0660F771FD3
:1007E000881F991F4A95D1F708958F929F92AF92D3
:1007F000BF92CF92DF92EF92FF924B015C010E9479
:10080000D0036B017C010E94D0036C197D098E0915
:100810009F09683E734081059105A8F321E0821A83
:100820009108A108B10888EEC80E83E0D81EE11C2B
:10083000F11C81149104A104B10429F7FF90EF90F9
:10084000DF90CF90BF90AF909F908F9008952FB77B
:10085000F89460914A0270914B0280914C02909101
:100860004D022FBF0895CF92DF92EF92FF920F9328
:100870001F93CF93DF93CDB7DEB7C054D1400FB6EF
:10088000F894DEBF0FBECDBF0E94270400913C0349
:1008900010913D0320913E0330913F036B017C0199
:1008A000C01AD10AE20AF30A97018601003D1740F7
:1008B0002105310590F480914403C05CDE4F0FB6F2
:1008C000F894DEBF0FBECDBFDF91CF911F910F9186
:1008D000FF90EF90DF90CF90089560933C0370936A
:1008E0003D0380933E0390933F0310923703109291
:1008F000360310923503109234031092330362E0F2
:10090000809138030E942F0361E070E080E090E066
:100910000E94F50361E0809138030E942F0360E09C
:10092000809138030E94E30280913903855182301F
:1009300020F58BE291E10197F1F762E080913803B5
:100940000E942F038091450390E08230910538F09A
:10095000880F991F880F991F05970197F1F7F89451
:1009600080E00E94AB026F3F7F4F8F4F9F4F61F43B
:1009700010924403789480E0A0CF64E170E080E0BE
:1009800090E00E94F503D9CF81E00E94AB026F3F57
:100990007F4F8F4F9F4F61F38E010F5F1F4F6E018F
:1009A0002FEBC21A2EEFD20A780180E00E94AB0230
:1009B000F701608371838283938381E00E94AB029D
:1009C000F7016483758386839783F8E0EF0EF11C4B
:1009D000EC14FD0451F7789430E020E0F801C08079
:1009E000D180E280F3804481558166817781FFEF79
:1009F000CF16DF06EF06FF0631F04F3F8FEF5807A7
:100A00006807780719F410924403B5CFF90183E021
:100A1000F595E7958A95E1F7ED5CFC4F8081880FAD
:100A2000C416D506E606F70610F180832F5F3F4F08
:100A3000085F1F4F2832310589F640913703209116
:100A4000330380913403280F3327331F80913503FC
:100A5000280F311D80913603820F932F911D992706
:100A60004817190681F681E08093440326CF816000
:100A7000DCCFAF92BF92CF92DF92EF92FF920F93B3
:100A80001F93CF93DF936C017B018B01040F151F24
:100A9000EB015E01AE18BF08C017D10759F069918C
:100AA000D601ED91FC910190F081E02DC6010995F0
:100AB000892B79F7C501DF91CF911F910F91FF909D
:100AC000EF90DF90CF90BF90AF900895FC01538DD1
:100AD000448D252F30E0842F90E0821B930B541718
:100AE00010F0CF96089501970895FC01918D828DA5
:100AF000981761F0A28DAE0FBF2FB11D5D968C913E
:100B0000928D9F5F9F73928F90E008958FEF9FEF7C
:100B10000895FC01918D828D981731F0828DE80F38
:100B2000F11D858D90E008958FEF9FEF0895FC01F2
:100B3000918D228D892F90E0805C9F4F821B9109BF
:100B40008F739927089586E592E00E94970521E02A
:100B5000892B09F420E0822F089580E090E0892B12
:100B600029F00E94A30581110C9400000895FC0156
:100B7000A48DA80FB92FB11DA35ABF4F2C91848DFE
:100B800090E001968F739927848FA689B7892C935B
:100B9000A089B1898C91837080648C93938D848DAE
:100BA000981306C00288F389E02D80818F7D8083B1
:100BB0000895EF92FF920F931F93CF93DF93EC0171
:100BC00081E0888F9B8D8C8D98131AC0E889F989F4
:100BD000808185FF15C09FB7F894EE89FF896083F7
:100BE000E889F98980818370806480839FBF81E078
:100BF00090E0DF91CF911F910F91FF90EF900895BA
:100C0000F62E0B8D10E00F5F1F4F0F731127E02E94
:100C10008C8D8E110CC00FB607FCFACFE889F989CC
:100C2000808185FFF5CFCE010E94B705F1CFEB8D16
:100C3000EC0FFD2FF11DE35AFF4FF0829FB7F894A0
:100C40000B8FEA89FB8980818062CFCFCF93DF93BE
:100C5000EC01888D8823B9F0AA89BB89E889F989D4
:100C60008C9185FD03C0808186FD0DC00FB607FC09
:100C7000F7CF8C9185FFF2CF808185FFEDCFCE013C
:100C80000E94B705E9CFDF91CF91089520915402DA
:100C9000309155022817390771F4909152028091D2
:100CA0005302981741F0E0915202F0E0E054FE4FF9
:100CB000808190E008958FEF9FEF08950895EF925F
:100CC000FF920F931F93CF93DF93DC015C96ED901F
:100CD000FC905D97E114F10479F481E090E01396C3
:100CE0009C938E93129790E080E0DF91CF911F91BB
:100CF0000F91FF90EF9008955196ED91FC915297CE
:100D000050968C915097982F90950FB75E962C9196
:100D10005E97122F127021FD6095F89420811123A7
:100D200019F1282B2083E7012197F1F728E0462FBE
:100D300050E0308160FF1AC0382B3083E7012197E3
:100D4000F1F7BA0175956795215089F7112381F064
:100D50008081892380830FBF5C968D919C91019740
:100D6000F1F781E090E0C1CF2923DCCF3923E5CF33
:100D70009081892BEFCF2091540230915502281792
:100D8000390761F4809153022091520290E0805C17
:100D90009F4F821B91098F739927089590E080E0FF
:100DA0000895209154023091550228173907B9F45B
:100DB0009091520280915302981789F0E09152026B
:100DC000F0E0E054FE4F80812091520230E02F5F2E
:100DD0003F4F2F7333272093520290E008958FEFF7
:100DE0009FEF0895089590E080E00895FC018081D0
:100DF000918186279183808328E040815181CA01B7
:100E00009695879540FF04C031E0832730EA932709
:100E100091838083215089F70895DC0114968D9188
:100E20009C91DC01ED91FC910190F081E02D099401
:100E3000CF93DF93EC018C819D81DC01ED91FC91DE
:100E40000084F185E02D0995892BB9F08C819D8175
:100E5000DC01ED91FC910284F385E02D0995AA81D6
:100E6000BB81109741F3ED91FC9111970190F081B6
:100E7000E02D682FCD010995DECFDF91CF91089548
:100E8000CB01DB01ED91FC910190F081E02D099403
:100E9000CF93DF93FC018189811116C084819581F4
:100EA00042855385EC01AB81BC8189859A858A0F87
:100EB0009B1FA817B90741F0EA013991AE012D91A6
:100EC0003217B9F381E0818BDF91CF910895CF93F1
:100ED000DF93FC01118AC481D581AB81BC8102847E
:100EE000F385E02D89859A858E0F9F1FE817F907F6
:100EF00019F02D912193FACFDF91CF910895BF92F0
:100F0000CF92DF92EF92FF920F931F93CF93DF93D5
:100F100000D000D0CDB7DEB7FC01A085B185109719
:100F200009F457C08B017C01FB018081882351F1BA
:100F3000D70152969C91992309F44BC0803809F44B
:100F400098C0803C09F4D1C08034E1F5C7010E940B
:100F50006707D70118968D919C9119971496ED917A
:100F6000FC912185328547815085240F351F4381AF
:100F70005481DC01ED91FC910680F781E02D00E0C9
:100F800060E472C0F70184819581FC01C580D68040
:100F9000FB0143815481452B51F5CD28D1F5FC014E
:100FA0002385348541815281ED91FC911197068012
:100FB000F781E02D01E060E0CD01099581E0D701E6
:100FC00052968C930E942704F70164877587868761
:100FD00097870F900F900F900F90DF91CF911F91F7
:100FE0000F91FF90EF90DF90CF90BF900895C114C4
:100FF000D10479F04181528121E0F60131916F01F4
:10100000FA016191AF01631320E03111F6CF211194
:10101000C6CFFC01C180D2808081853038F183E069
:1010200090E09C012F5F3F4F8E010F5F1F4F70E0DC
:1010300060E0A801F601E60FF71FB490F801B19245
:101040008F016F5F7F4F68177907A1F7640F751FD6
:1010500080EFFB018083ED91FC9111970680F78171
:10106000E02D00E060E0CD010995ACCF82E090E09A
:10107000D8CFC7010E944807F80183819481D70126
:101080001496ED91FC91159721853285821793076F
:10109000E1F451962C91211118C0D80111964D916F
:1010A0005C910380F481E02DD7011A966D917C91BB
:1010B0008E0F9F1FE817F90741F0DA012D91AD015E
:1010C0002193DB012D93BD01F5CFF701808591853B
:1010D000DC01ED91FC910680F781E02D00E030E02D
:1010E00020E050E040E060E8BFCFC7010E94480721
:1010F000F701818960EC811161ECD70118968D911F
:101100009C9119971496ED91FC912781308543812C
:1011100054810184F285E02D4E0F5F1FDC01ED91BB
:10112000FC910680F781E02D00E09ECFCF93DF9306
:10113000DC0118966D917C916115710569F0EC01E7
:101140008E819F81DC01ED91FC910680F781E02D7D
:101150000995198618861A8ADF91CF9108958F9282
:101160009F92AF92BF92FF920F931F93CF93DF9303
:101170008C01DC011F96CD91DC91F12C2097D9F1E7
:10118000688579856115710581F18E819F81DC010A
:10119000ED91FC910480F581E02D09958885998574
:1011A000DC01ED91FC910280F381E02D099588230B
:1011B000C9F00E9427048C849D84AE84BF84681982
:1011C00079098A099B0961347F418105910568F09D
:1011D0000E9427046C877D878E879F871A8A88895B
:1011E000882319F0CE010E9496088A89F80E0A8099
:1011F000DB81C02DC3CFD8011D96ED91FC911E97C8
:10120000F0825196CD91DC91209759F0E881F981D7
:101210000190F081E02DCE0109950A80DB81C02D7F
:10122000F3CFF801C389D489209759F0E881F98177
:101230000280F381E02DCE0109950A80DB81C02D6B
:10124000F3CFDF91CF911F910F91FF90BF90AF909F
:101250009F908F900895CF92DF92EF92FF92CF935D
:10126000DF93EC010E9427046B017C010E9427049C
:101270006C197D098E099F09683E734081059105AF
:1012800020F4CE010E94AF08F1CFDF91CF91FF9003
:10129000EF90DF90CF9008950895CF93DF93FC01F6
:1012A00080899189009711F46535F1F52685378598
:1012B0008217930758F18389811136C0448555857B
:1012C00081E090E08217930740F4DA01A80FB91F7C
:1012D0007C91753511F00196F5CF281B390B318BB8
:1012E000208B9C01D901A81BB90B44855585C68567
:1012F000D7852C173D0750F4EA01C20FD31F788120
:10130000A40FB51F7C932F5F3F4FECCFA485B5850D
:10131000808991899C012F5F3F4F318B208BA80FD3
:10132000B91F6C9381E0828BDF91CF910895049770
:101330000C944D091F93CF93DF93EC01162F8885F2
:101340009985DC01ED91FC910480F581E02D0995F2
:10135000612FCE010A96DF91CF911F910C94F60672
:101360008F929F92BF92CF92DF92EF92FF920F9354
:101370001F93CF93DF93FC01A085B185109709F4EB
:101380005AC06901152FB42EF62EEC018FEF9FEF96
:10139000938782874901F6E08F0E911CED91FC91B5
:1013A00011970280F381E02DB401CD01099565E527
:1013B000CE010E949A09682DCE010E949A09692DDA
:1013C000CE010E949A096F2DCE010E949A09EB2C42
:1013D000F12ECE0CDF1CCE14DF0471F0002349F097
:1013E000F7016491CE010E949A09BFEFEB1AFB0A44
:1013F000F2CFD7016C91F6CF88859985DC01ED910C
:10140000FC910480F581E02D6A8509958885998590
:101410006B85DC01ED91FC910480F581E02DDF917D
:10142000CF911F910F91FF90EF90DF90CF90BF90E1
:101430009F908F900994DF91CF911F910F91FF9012
:10144000EF90DF90CF90BF909F908F9008953F9244
:101450004F925F926F927F928F929F92AF92BF92C4
:10146000CF92DF92EF92FF920F931F93CF93DF9370
:1014700000D000D000D01F92CDB7DEB7FC01A08510
:10148000B185109709F4A4C08C01ED91FC911197DE
:101490000190F081E02DCD010995D80152968C91F3
:1014A0005297882309F494C052961C92F12CE12C97
:1014B00044244A94542C33243394F801808991892C
:1014C00097012A5F3F4F8217930708F481C0248554
:1014D00035854701FFEF8F1A9F0AF901EE0DFF1DB9
:1014E0004081453509F072C0C280280D391DD901EF
:1014F0002C91DC2CC22E8E199F098C159D0508F4A9
:1015000065C0B6E0CB16D10408F460C05F824E829D
:10151000570137016C0C7D1CA614B70478F4D80170
:101520001C96ED91FC91EA0DFB1D6081CE010696A3
:101530000E94F606BFEFAB1ABB0AEECF8E819F81E9
:10154000892B09F043C0F80184859585FC01EE0DD7
:10155000FF1D23812983F4E0EF0EF11CE80EF91E34
:10156000FB82EA8226E0C21AD108DD82CC82D80151
:1015700053963C92539712968D919C91009751F0FF
:10158000DC01ED91FC910190F081E02DBE016F5FD7
:101590007F4F099590E080E0A301480F591FF801A3
:1015A000208931894217530760F424853585420F1D
:1015B000531FDA014C91280F391FF901408301961E
:1015C000EBCF918B808B138A912C812C740175CF7A
:1015D00027960FB6F894DEBF0FBECDBFDF91CF9137
:1015E0001F910F91FF90EF90DF90CF90BF90AF9041
:1015F0009F908F907F906F905F904F903F90089555
:1016000021E0FC0180859185892B09F420E0822F5F
:101610000895FC01138212821186108608950895A0
:10162000CF93DF93EC0160E08E810E94E30261E0E2
:101630008E810E94E30260E08E810E94E3028BE8CB
:1016400091E00197F1F7DF91CF910895CF92DF926A
:10165000EF92FF920F931F93CF93DF936C017C0166
:1016600087E0E80EF11CD0E0C0E0062F10E0B801E2
:101670000C2E02C0759567950A94E2F76170F70128
:1016800081917F010E94E3022196C430D10579F750
:10169000C601DF91CF911F910F91FF90EF90DF90E6
:1016A000CF900C94100BCF92DF92EF92FF920F939A
:1016B0001F93CF93DF93EC01F62E642F8C810E9451
:1016C000E3028D818F3F19F060E00E94E3020F2D4D
:1016D00010E08F8584FF25C06E0187E0C80ED11C05
:1016E000F12CE12CB8010E2C02C0759567950A9477
:1016F000E2F76170F60181916F010E94E302FFEF52
:10170000EF1AFF0A88E0E816F10461F7CE01DF91D5
:10171000CF911F910F91FF90EF90DF90CF900C949D
:10172000100BB80184E0759567958A95E1F7CE01B5
:101730000E94260B6F2DCE01DF91CF911F910F914B
:10174000FF90EF90DF90CF900C94260B40E0682F35
:1017500088E193E00C94530B81E00E94A60B8BE38D
:101760009FE10197F1F70895CF93DF93823029F439
:101770009091270398609093270380932B031092F6
:101780002C0380E480932D0380E180932E0380E579
:1017900080932F0361E080911C030E942F038091AE
:1017A0001D038F3F19F061E00E942F0361E08091DB
:1017B0001E030E942F03C8E1D3E09E01285133404D
:1017C0008091270384FD0BC084E090E021962817C8
:1017D000390744F461E08E810E942F03EECF88E048
:1017E00090E0F4CF8BE39DE00197F1F760E080910A
:1017F0001C030E94E30260E080911E030E94E3024A
:1018000080911D038F3F19F060E00E94E3028091F8
:10181000270384FD34C063E088E193E00E94260B37
:10182000CBE4D6E4CE010197F1F763E088E193E0E1
:101830000E94260B2197F1F763E088E193E00E9474
:10184000260B83E592E00197F1F762E088E193E0EF
:101850000E94260B8091270380620E94A60B84E0E1
:10186000809328038CE00E94A60B0E94AC0B82E0C0
:101870008093290386E0DF91CF910C94A60B8062C0
:101880000E94A60B8BE496E40197F1F78091270361
:1018900080620E94A60B83E592E00197F1F78091A8
:1018A000270380620E94A60BD5CF41E00E94530B14
:1018B00081E090E00895AF92BF92CF92DF92EF92D5
:1018C000FF920F931F93CF93DF935C017B0184E121
:1018D00090E00E94A819EC011B821A828AE091E034
:1018E0009983888388E191E09D838C83D701199641
:1018F000CD90DC901A9715968D919C91892B69F16A
:10190000C601BAE1CB16D10410F48AE190E0069644
:101910009F878E870E94A8199D878C87D501129674
:10192000ED91FC91F987E887CE0104969383828339
:10193000198A188A1A8A1B8AF701078510890115E6
:10194000110559F1D80118968D919C911997892B01
:1019500031F012960D911C91F2CFC601D8CFF8014B
:10196000B782A682D187C0871B830A83108A0E9410
:101970002704D8011C966D937D938D939C931F979C
:1019800052961C92DF91CF911F910F91FF90EF9093
:10199000DF90CF90BF90AF90089583E190E00E94D8
:1019A000A8198C018EE191E0F80191838083F58282
:1019B000E48211861086C6010E94A819D8011B96E0
:1019C0009C938E931A97C8010E946707F701878539
:1019D0009089D80113969C938E931297108B07874A
:1019E0001796BC92AE9216971996DC93CE931897E1
:1019F0001B830A8350961C920E942704F801648777
:101A0000758786879787128ABDCFFB0101900020DA
:101A1000E9F73197AF01461B570BDC01ED91FC91C3
:101A20000280F381E02D09948F929F92AF92BF9232
:101A30000F931F93CF93DF93CDB7DEB7A1970FB668
:101A4000F894DEBF0FBECDBF19A2423008F44AE0C1
:101A50008E010F5D1F4F842E912CB12CA12CA5015E
:101A600094010E945C18E62FB901CA01EA3004F51E
:101A7000E05DD801EE938D01232B242B252B79F7E4
:101A800090E080E0109729F0BD0186E493E00E9489
:101A9000050DA1960FB6F894DEBF0FBECDBFDF9146
:101AA000CF911F910F91BF90AF909F908F9008950D
:101AB000E95CDFCF4F925F926F927F928F929F92FD
:101AC000AF92BF92CF92DF92EF92FF920F931F934C
:101AD000CF936B017C01742EAC019B010E94911984
:101AE00066E671E0811126C046015701E894B7F817
:101AF0002FEF3FEF4FE75FE7C501B4010E94911957
:101B000081110CC02FEF3FEF4FE75FE7C501B40134
:101B10000E9401176AE671E0181664F02FEF3FEF9C
:101B20004FE75FE4C701B6010E948C191816ACF4A8
:101B30006EE671E086E493E0CF911F910F91FF90E4
:101B4000EF90DF90CF90BF90AF909F908F907F905D
:101B50006F905F904F900C94050D2FEF3FEF4FE784
:101B60005FECC701B6010E94011787FDE1CF20E0BD
:101B700030E0A901C701B6010E94011710E000E0A2
:101B800087FF0AC06DE286E493E00E945F068C0145
:101B9000F7FAF094F7F8F094C0E060E070E080E0CD
:101BA0009FE37C1641F020E030E040E251E40E94E7
:101BB000EB18CF5FF6CFA70196010E947F182B018B
:101BC0003C010E945D194B015C014AE00E94140D2A
:101BD0007C01E00EF11ECC23C1F1C501B4010E94CD
:101BE00006179B01AC01C301B2010E947E184B0194
:101BF0005C016EE286E493E00E945F06E80EF91E47
:101C0000C15018F120E030E040E251E4C501B401D8
:101C10000E9467172B013C010E945D194B01B12CFA
:101C2000A12C4AE0C501B4010E94140DE80EF91E72
:101C3000C501B4010E9406179B01AC01C301B201AA
:101C40000E947E184B015C01DBCFC701CF911F9131
:101C50000F91FF90EF90DF90CF90BF90AF909F904B
:101C60008F907F906F905F904F9008950C94050D2A
:101C70001F920F920FB60F9211242F933F938F93C1
:101C80009F93AF93BF9380914A0290914B02A09192
:101C90004C02B0914D023091490223E0230F2D37C1
:101CA00058F50196A11DB11D2093490280934A0267
:101CB00090934B02A0934C02B0934D0280914E0240
:101CC00090914F02A0915002B09151020196A11D36
:101CD000B11D80934E0290934F02A0935002B09397
:101CE0005102BF91AF919F918F913F912F910F9092
:101CF0000FBE0F901F90189526E8230F0296A11D86
:101D0000B11DD2CF1F920F920FB60F9211242F93B5
:101D10003F934F935F936F937F938F939F93AF9373
:101D2000BF93EF93FF9386E592E00E94B705FF9182
:101D3000EF91BF91AF919F918F917F916F915F9143
:101D40004F913F912F910F900FBE0F901F901895BC
:101D50001F920F920FB60F9211242F938F939F9380
:101D6000EF93FF93E0916602F09167028081E0912A
:101D70006C02F0916D0282FD1BC0908180916F0218
:101D80008F5F8F7320917002821741F0E0916F0294
:101D9000F0E0EA5AFD4F958F80936F02FF91EF912B
:101DA0009F918F912F910F900FBE0F901F901895BC
:101DB0008081F4CF1F920F920FB60F9211242F93B0
:101DC0003F934F935F936F937F938F939F93AF93C3
:101DD000BF93CF93DF93EF93FF9380910002C09165
:101DE0001703D0E087FF24C0109285001092840072
:101DF000809100028F5F8093000280910002082E84
:101E0000000C990B8C179D0724F4809100028C30F4
:101E1000C4F18091840090918500049680349C499F
:101E200008F47AC08091840090918500049676C071
:101E300080910002082E000C990B8C179D07C4F6A8
:101E4000E09100028E2FEE0F990BFC01EE0FFF1FA9
:101E5000E80FF91FED50FD4F808186FFC9CFE0915B
:101E600000028E2FEE0F990BFC01EE0FFF1FE80F03
:101E7000F91FED50FD4F808160E08F730E94E302F7
:101E8000B7CF2091840030918500E09100028E2F21
:101E9000EE0F990BFC01EE0FFF1FE80FF91FED503D
:101EA000FD4F81819281820F931F909389008093CF
:101EB0008800E09100028E2FEE0F990BFC01EE0FCF
:101EC000FF1FE80FF91FED50FD4F808186FF11C005
:101ED000E09100028E2FEE0F990BFC01EE0FFF1F19
:101EE000E80FF91FED50FD4F808161E08F730E9474
:101EF000E302FF91EF91DF91CF91BF91AF919F915D
:101F00008F917F916F915F914F913F912F910F90A2
:101F10000FBE0F901F90189580E49CE99093890064
:101F2000809388008FEF80930002E3CF1F920F927F
:101F30000FB60F9211242F933F934F935F936F939C
:101F40007F938F939F93AF93BF93EF93FF93E09112
:101F50005402F0915502309749F0A685B7858585E2
:101F6000968D91FF14C09C918923A1F4FF91EF916C
:101F7000BF91AF919F918F917F916F915F914F91A1
:101F80003F912F910F900FBE0F901F9018959C912D
:101F9000892361F7A389B4899C91858980958923D8
:101FA0008C93868997890197F1F7608D718DA6854D
:101FB000B785558538E020E0CB010197F1F7822FF6
:101FC00090E095958795282F4C91452309F020683E
:101FD000315091F7868D81FD20958091530290E0DC
:101FE00001968F73992730915202381799F0A0917A
:101FF0005302B0E0A054BE4F2C9380935302828DC5
:10200000938D0197F1F7A389B4898C919589892BD8
:102010008C93ACCF868D8160868FF1CF1092590260
:102020001092580288EE93E0A0E0B0E080935A024C
:1020300090935B02A0935C02B0935D028CE491E00C
:10204000909357028093560285EC90E09093630240
:102050008093620284EC90E0909365028093640226
:1020600080EC90E0909367028093660281EC90E0B0
:10207000909369028093680282EC90E090936B02E7
:1020800080936A0286EC90E090936D0280936C02DC
:1020900010926F02109270021092710210927202EE
:1020A00042E163E186E493E00E946B038FE080935A
:1020B00038038BE080933903E9EDF2E0E491E0939B
:1020C0003A03E5ECF2E0E491E0933B0380E89EE321
:1020D000A0E0B0E08093400390934103A0934203BB
:1020E000B0934303809117038C30F0F591E0980F83
:1020F000909317038093300390E0FC01EE0FFF1FD5
:10210000E80FF91FED50FD4F88EB9BE09283818330
:1021100010921B0310921A038EE591E0909319031D
:102120008093180387E080931C038FEF80931D0337
:1021300088E080931E0385E080931F0384E08093F2
:10214000200383E08093210382E080932203109296
:102150002303109224031092250310922603109259
:10216000270381E00C94B40B8FEF80933003D0CF22
:10217000789484B5826084BD84B5816084BD85B562
:10218000826085BD85B5816085BD80916E0081606E
:1021900080936E0010928100809181008260809314
:1021A0008100809181008160809381008091800016
:1021B0008160809380008091B10084608093B10041
:1021C0008091B00081608093B00080917A0084603B
:1021D00080937A0080917A00826080937A00809167
:1021E0007A00816080937A0080917A008068809381
:1021F0007A001092C100E0916602F091670282E0DD
:102200008083E0916202F09163021082E0916402A7
:10221000F09165028FEC808310926E02E0916A0269
:10222000F0916B0286E08083E0916802F091690290
:10223000808180618083E0916802F09169028081F1
:1022400088608083E0916802F091690280818068F3
:102250008083E0916802F091690280818F7D8083A4
:1022600086E493E00E949B0186E090E00E94A8191A
:102270008C01FC011382128284E291E091838083BD
:102280008FE190E00E94A819EC0143E162E10E9415
:102290006B03CE010E949B01F801D583C48385E1C5
:1022A00090E00E94A819EC01E2E6F1E08491E3E6F7
:1022B000F1E08F3F09F03CC08491E4E6F1E0E49165
:1022C000FE2FE82FFA87E987E5E6F1E08491E6E65C
:1022D000F1E0E491FE2FE82FF887EF83E7E6F1E0E5
:1022E0002491CF0102963196E491FE2FE22FFC87D4
:1022F000EB879A838983FC018491888385E092E04F
:102300009C838B838F81988529853A85820F931FC3
:10231000FC01EB5FFD4FFE87ED87108222E731E085
:102320003E832D83E5E0F2E0815060F01192FCCF16
:1023300090E09A878987E491F0E0F887EF83E4E6FC
:10234000F1E0CECF1A8A198A1C8A1B8A188A1F8646
:1023500084E090E00E94A8192EE231E0FC01318374
:10236000208313830283BE010E945B0CD09304027E
:10237000C0930302809130038C3008F051C061E0BB
:1023800086E00E942F0380913003282F30E0F9016E
:10239000EE0FFF1FE20FF31FED50FD4F9081907C79
:1023A0009660908310923103109232032CE0622FDA
:1023B0000E949619829FB001112430E020E0AB0109
:1023C000420F531FFA01EE0FFF1FE40FF51FED50F0
:1023D000FD4F908196FD16C02F5F3F4F2C30310589
:1023E00071F781110FC01092800082E0809381000C
:1023F0001092850010928400B19A80916F008260E3
:1024000080936F00E09130038E2F90E0FC01EE0F7F
:10241000FF1FE80FF91FED50FD4F8081806480831E
:1024200060E08EE00E942F0361E080E10E942F03B4
:1024300061E08DE00E942F0361E08BE00E942F039A
:1024400061E08AE00E942F0361E089E00E942F038F
:1024500061E08CE00E942F0362E0809138030E94CB
:102460002F030E942704605D7740810991096093E2
:102470003C0370933D0380933E0390933F0387E3B7
:102480008093450382E00E94B40B67E771E088E126
:1024900093E00E94360E68EE73E080E090E00E94C8
:1024A000F5030E9427046093390270933A028093E7
:1024B0003B0290933C0290E4F92EC0E0D0E00E94F1
:1024C0003304882351F0809139038B3030F08D3004
:1024D00058F08551823008F475C0812C912C80EC25
:1024E000A82E8FE7B82E1EC06091340370E090E0F4
:1024F00080E00E9408172DEC3CEC4CEC5DE30E9460
:1025000067174B015C016091330370E090E080E05D
:102510000E9408179B01AC01C501B4010E947F18FD
:102520004B015C018092450290924602A0924702C4
:10253000B09248020E943304882309F455C080E019
:102540000E942102609341027093420280934302F1
:10255000909344020E943304882309F44AC081E026
:102560000E94210260933D0270933E0280933F02DD
:10257000909340020E9427040091390210913A0280
:1025800020913B0230913C02601B710B820B930B3C
:10259000643671058105910588F10E9427046093D6
:1025A000390270933A0280933B0290933C02209749
:1025B00009F485CF0E94A305882309F480CF0E94E7
:1025C00000007DCF60913303709134037627672735
:1025D000762790E080E00E9406172DEC3CEC4CEC56
:1025E0005DE30E9467179CCF60E070E080EC9FE79E
:1025F000A9CF60E070E080EC9FE7B4CF0E94270491
:102600000091350210913602209137023091380244
:10261000601B710B820B930B643F71408105910528
:1026200008F450C042E0C501B4010E945A0D68E8A8
:1026300071E086E493E00E94360E6BE871E086E478
:1026400093E00E94360E60914102709142028091A7
:1026500043029091440242E00E945A0D6DE871E0FD
:1026600086E493E00E94360E6BE871E086E493E026
:102670000E94360E60913D0270913E0280913F02B1
:102680009091400242E00E945A0D60E971E086E4B8
:1026900093E00E94360E63E971E086E493E00E94C5
:1026A000360E64E170E080E090E00E94F5030E9445
:1026B000270460933502709336028093370290931B
:1026C000380275CF0E942704009131021091320226
:1026D0002091330230913402601B710B820B930BFB
:1026E0006530710581059105A0F1F0927C00809123
:1026F0007A00806480937A0080917A0086FDFCCF16
:1027000080917800909179008C329140CCF061E01A
:102710008CE00E94E30261E08AE00E94E30265E946
:1027200071E081E292E00E94CD1A0E94270460933A
:10273000310270933202809333029093340237CF88
:1027400060E08AE00E94E30260E08CE00E94E30225
:10275000ECCF0E94270400912D0210912E022091AF
:102760002F0230913002601B710B820B930B65308E
:1027700071058105910508F41ACF809103029091AB
:1027800004020E94AF086091410270914202809160
:102790004302909144020BE012E021E040E00E94ED
:1027A000AC1460914502709146028091470290916D
:1027B000480206E112E021E040E00E94AC1461E032
:1027C00080910602811101C060E089E00E94E3026D
:1027D00061E080910902811101C060E08AE00E94FD
:1027E000E30261E080910A02811101C060E08BE0A8
:1027F0000E94E30261E080910802811101C060E063
:102800008DE00E94E30261E080910502811101C028
:1028100060E080E10E94E3028091050220910102C4
:10282000309102028217130661F1813009F042C033
:102830000E94AC0BE1E080912B038111E0E0E19577
:10284000F0E0E85EFC4F848980680E94A60B62EA93
:1028500071E088E193E00E94360E61E089E00E9419
:10286000E30280910302909104020E942B0960E030
:1028700089E00E94E30280910302909104020E9489
:102880002B090E94AC0B67E771E088E193E00E949E
:10289000360E6AE070E080E090E00E94F5030E944E
:1028A000270460932D0270932E0280932F02909341
:1028B00030027DCE0E94AC0BE1E080912B038111B0
:1028C000E0E0E195F0E0E85EFC4F848980680E94DA
:1028D000A60B62EB71E088E193E00E94360E61E0A6
:1028E0008AE00E94E30261E08DE00E94E3028091B1
:1028F0000302909104020E942B0960E08AE00E948A
:10290000E30260E08DE00E94E30280910302909177
:1029100004020E942B091092020210920102B1CF10
:102920008AE391E090934703809346038091540299
:10293000909155028654934071F4E0915903F091BF
:102940005A03908180915B03809589238083109244
:102950005502109254020895EF920F931F93CF9354
:10296000DF93E80134E047FD34E1042E000C550B01
:1029700057FF03C0519541955109E32E022F242F93
:10298000AE010E94CA14CE01DF91CF911F910F9129
:10299000EF900895A9E0B0E0E0EDF4E10C942B187D
:1029A0006A01F22EB02E102FFBE3AF2EA01608F412
:1029B0001BE31F5F012F27E0AE014F5F5F4F0E94B7
:1029C0002916BC018981982F9970913009F43FC074
:1029D0009BE2E1FC04C09E2D9170E0FC3AC05E2DAC
:1029E0005071E82FE87083FF46C084E0911101C068
:1029F00083E0EF2DE81B8F1508F0E0E0D6018E2F65
:102A000020E2552351F1992329F0D6019C93C60168
:102A100001966C0196012D5F3F4FE2FE24C08EE4CB
:102A2000D6018C9391E411969C93119712968C93F6
:102A3000D9018E2F90E281111BC0E20FF32FF11DFF
:102A400010828EEF9FEF2996ECE00C9447189DE2E0
:102A5000C6CF90E2C4CF2D9381508111FCCFCE0E12
:102A6000D11CE0E0D0CF8EE6D6018C9391E6DBCF8F
:102A70009D938150E0CF482F447082FF3DC084E099
:102A8000911101C083E08F1510F4EF2DE81BD601E2
:102A90008E2F20E2552309F1992329F0D6019C932A
:102AA000C60101966C0196012D5F3F4FE2FE1BC0EF
:102AB00089E4D6018C938EE411968C93119786E469
:102AC00012968C93D9018E2F90E2882309F4B5CF0A
:102AD0009D938150FACF2D9381508111FCCFCE0E62
:102AE000D11CE0E0D9CF89E6D6018C938EE6119611
:102AF0008C93119786E6E4CF9B0177FF02C030E00C
:102B000020E0A1E0B0E0911102C0B0E0A0E0F90146
:102B10003196AE0FBF1F8B2C912CBB2009F461C0E6
:102B20005401EFEFAE1ABE0AAA0DBB1DFA161B0622
:102B300019F014F04F2D4A1B511188C0E3FC59C005
:102B40007601A42FB0E2A1114FC0C40ED11C99236D
:102B500009F45BC040E0D6011196F60190836D0147
:102B6000552309F448C0012F060F9A81582F507140
:102B700084FF03C0913309F4015010160CF047C0D4
:102B8000093008F008E0EEE2FE2E5B01A01AB10861
:102B900085019194819491082F3F320729F4D60141
:102BA000FC92F60131966F016217730794F10217D8
:102BB00013077CF5DB01A21BB30BAA24A394B12C51
:102BC000AC0EBD1EAA0DBB1D11968C912150310972
:102BD000D601119628153905F4F0F60180836D01B0
:102BE000DBCFB12CA12CA0CFF701B1937F01A15075
:102BF000AACF9111B0CFD601942F50E302C05D93BC
:102C000091509111FCCFC40ED11C40E0ACCF01E03B
:102C1000BACF80E3DBCF6217730731F4963388F4C1
:102C2000953311F4552369F0F6018083FD01842F5B
:102C300090E2811108C0A40FB11D1C9290E080E0C9
:102C400002CF81E3F1CF91938150F3CF911183CFE4
:102C50008ACF283008F027E03327DA01990F311D99
:102C600087FD916000966105710539F432602E5F31
:102C70003D9330E32A95E1F708959F3F30F0803887
:102C80007105610509F03C5F3C5F3D93913008F0B0
:102C90008068911DDF93CF931F930F93FF92EF9264
:102CA000192F987F9695E92F96959695E90FFF270E
:102CB000EE53FF4F99273327EE24FF24A701E701A6
:102CC00005900894079428F4360FE71EF81E491F54
:102CD000511D660F771F881F991F0694A1F7059055
:102CE000079428F4E70EF81E491F561FC11D770FE1
:102CF000881F991F661F0694A1F70590079428F472
:102D0000F80E491F561FC71FD11D880F991F661F38
:102D1000771F0694A1F70590079420F4490F561FDA
:102D2000C71FD81F990F661F771F881F0694A9F722
:102D300084911095177041F0D695C7955795479592
:102D4000F794E7941A95C1F7E8E6F0E068941590D7
:102D5000159135916591959105907FE27395E118F4
:102D6000F10A430B560BC90BD009C0F7E10CF11E59
:102D7000431F561FC91FD01D7EF4703311F48A956E
:102D8000E6CFE894015030F0080F0AF4002702174C
:102D900008F4202F2395022F7A3328F079E37D93CE
:102DA0002A95E9F710C07D932A9589F606949795A0
:102DB0006795379517951794E118F10A430B560B51
:102DC000C90BD00998F023957E9173957A3308F05A
:102DD00070E37C932013B8F77E9170617D9330F09F
:102DE000839571E37D9370E32A95E1F71124EF90C9
:102DF000FF900F911F91CF91DF91992787FD9095BB
:102E000008950E94431708F481E00895E89409C0EA
:102E100097FB3EF490958095709561957F4F8F4F0D
:102E20009F4F9923A9F0F92F96E9BB279395F69523
:102E3000879577956795B795F111F8CFFAF4BB0FA1
:102E400011F460FF1BC06F5F7F4F8F4F9F4F16C005
:102E5000882311F096E911C0772321F09EE8872F8F
:102E6000762F05C0662371F096E8862F70E060E04B
:102E70002AF09A95660F771F881FDAF7880F9695C4
:102E8000879597F90895990F0008550FAA0BE0E868
:102E9000FEEF16161706E807F907C0F0121613061C
:102EA000E407F50798F0621B730B840B950B39F45C
:102EB0000A2661F0232B242B252B21F408950A26C2
:102EC00009F4A140A6958FEF811D811D08950E94F0
:102ED0007A170C94EB170E94DD1738F00E94E41764
:102EE00020F0952311F00C94D4170C94DA171124C8
:102EF0000C941F180E94FC1770F3959FC1F3950F57
:102F000050E0551F629FF001729FBB27F00DB11D6D
:102F1000639FAA27F00DB11DAA1F649F6627B00DFD
:102F2000A11D661F829F2227B00DA11D621F739FE6
:102F3000B00DA11D621F839FA00D611D221F749FF4
:102F40003327A00D611D231F849F600D211D822F3B
:102F5000762F6A2F11249F5750409AF0F1F0882362
:102F60004AF0EE0FFF1FBB1F661F771F881F91508F
:102F70005040A9F79E3F510580F00C94D4170C9453
:102F80001F185F3FE4F3983ED4F3869577956795D5
:102F9000B795F795E7959F5FC1F7FE2B880F911DB9
:102FA0009695879597F9089597F99F6780E870E05F
:102FB00060E008959FEF80EC089500240A941616AF
:102FC000170618060906089500240A941216130617
:102FD000140605060895092E0394000C11F48823A5
:102FE00052F0BB0F40F4BF2B11F460FF04C06F5FC1
:102FF0007F4F8F4F9F4F089557FD9058440F551F97
:1030000059F05F3F71F04795880F97FB991F61F06A
:103010009F3F79F087950895121613061406551FE1
:10302000F2CF4695F1DF08C0161617061806991F4D
:10303000F1CF86957105610508940895E894BB2742
:1030400066277727CB0197F908952F923F924F92E9
:103050005F926F927F928F929F92AF92BF92CF9228
:10306000DF92EF92FF920F931F93CF93DF93CDB731
:10307000DEB7CA1BDB0B0FB6F894DEBF0FBECDBFA9
:1030800009942A88398848885F846E847D848C847A
:103090009B84AA84B984C884DF80EE80FD800C8183
:1030A0001B81AA81B981CE0FD11D0FB6F894DEBF66
:1030B0000FBECDBFED010895A1E21A2EAA1BBB1BC6
:1030C000FD010DC0AA1FBB1FEE1FFF1FA217B307F4
:1030D000E407F50720F0A21BB30BE40BF50B661F0A
:1030E000771F881F991F1A9469F7609570958095CE
:1030F00090959B01AC01BD01CF0108955058BB27AD
:10310000AA270E9496180C94EB170E94DD1738F03E
:103110000E94E41720F039F49F3F19F426F40C9430
:10312000DA170EF4E095E7FB0C94D417E92F0E9410
:10313000FC1758F3BA17620773078407950720F046
:1031400079F4A6F50C941E180EF4E0950B2EBA2F08
:10315000A02D0B01B90190010C01CA01A00111249D
:10316000FF27591B99F0593F50F4503E68F11A1649
:10317000F040A22F232F342F4427585FF3CF4695DA
:1031800037952795A795F0405395C9F77EF41F16FC
:10319000BA0B620B730B840BBAF09150A1F0FF0FC6
:1031A000BB1F661F771F881FC2F70EC0BA0F621FB2
:1031B000731F841F48F4879577956795B795F795A2
:1031C0009E3F08F0B0CF9395880F08F09927EE0F37
:1031D0009795879508950E94FF180C94EB170E940D
:1031E000E41758F00E94DD1740F029F45F3F29F002
:1031F0000C94D41751110C941F180C94DA170E94D8
:10320000FC1768F39923B1F3552391F3951B550BE4
:10321000BB27AA2762177307840738F09F5F5F4FA9
:10322000220F331F441FAA1FA9F335D00E2E3AF0E8
:10323000E0E832D091505040E695001CCAF72BD000
:10324000FE2F29D0660F771F881FBB1F2617370751
:103250004807AB07B0E809F0BB0B802DBF01FF2783
:1032600093585F4F3AF09E3F510578F00C94D41775
:103270000C941F185F3FE4F3983ED4F3869577953E
:103280006795B795F7959F5FC9F7880F911D96953C
:10329000879597F90895E1E0660F771F881FBB1F98
:1032A000621773078407BA0720F0621B730B840B45
:1032B000BA0BEE1F88F7E09508950E94041888F075
:1032C0009F5798F0B92F9927B751B0F0E1F0660FEA
:1032D000771F881F991F1AF0BA95C9F714C0B1302B
:1032E00091F00E941E18B1E008950C941E18672FEB
:1032F000782F8827B85F39F0B93FCCF3869577955A
:103300006795B395D9F73EF4909580957095619542
:103310007F4F8F4F9F4F08950E94431708F48FEF00
:1033200008950E944317880B990B0895991B79E023
:1033300004C0991F961708F0961B881F7A95C9F745
:1033400080950895EE0FFF1F0590F491E02D0994EC
:103350000F931F93CF93DF938230910510F482E097
:1033600090E0E0916703F091680330E020E0B0E086
:10337000A0E0309799F42115310509F44AC0281BC3
:10338000390B24303105D8F58A819B81611571058F
:1033900089F1FB0193838283FE0111C04081518139
:1033A0000281138148175907E0F04817590799F42B
:1033B000109761F012960C93129713961C93329605
:1033C000CF01DF91CF911F910F9108950093670373
:1033D00010936803F4CF2115310551F042175307BC
:1033E00038F0A901DB019A01BD01DF01F801C1CF6D
:1033F000EF01F9CF9093680380936703CDCFFE016F
:10340000E20FF31F8193919322503109398328836E
:10341000D7CF2091650330916603232B41F420918F
:1034200002013091030130936603209365032091DC
:103430000001309101012115310541F42DB73EB74E
:103440004091040150910501241B350BE091650367
:10345000F0916603E217F307A0F42E1B3F0B281729
:10346000390778F0AC014E5F5F4F2417350748F0FD
:103470004E0F5F1F509366034093650381939193B2
:103480009FCFF0E0E0E09CCFCF93DF930097E9F08F
:10349000FC01329713821282A0916703B0916803F6
:1034A000ED0130E020E01097A1F420813181820FFE
:1034B000931F20916503309166032817390709F09F
:1034C00061C0F0936603E0936503DF91CF910895A7
:1034D000EA01CE17DF07E8F54A815B819E014115BD
:1034E0005105B1F7E901FB83EA8349915991C40F72
:1034F000D51FEC17FD0761F4808191810296840F3E
:10350000951FE90199838883828193819B838A83B4
:10351000F0E0E0E012968D919C9113970097B9F539
:103520002D913C911197CD010296820F931F20910E
:103530006503309166032817390739F6309751F53E
:103540001092680310926703B0936603A09365031B
:10355000BCCFD383C28340815181840F951FC8178C
:10356000D90761F44E5F5F4F88819981480F591FD9
:10357000518340838A819B81938382832115310506
:1035800009F0B0CFF0936803E09367039ECFFD018D
:10359000DC01C0CF13821282D7CFFB01DC01019086
:1035A0000D920020E1F7089511E0C0E7D1E004C0DA
:1035B000FE010E94A2192196C137D107C9F7F894DC
:1035C000FFCF00006903800000000000270A000B05
:1035D000090BB0094D09FCFF00009709000000002D
:1035E0007F070000000018070F0B0D070000000008
:1035F0005B0CF20640074C09000000005F0639052D
:10360000F3065E06BB06D106460600000000D9059B
:103610003905660526069705750589050000000031
:10362000550C3905F306F2066E616E00696E660090
:103630006F76660031323334002020202020574539
:103640004C434F4D4520202020002025002C0020F9
:1036500043002046003B0047415320444554454326
:1036600054454400414343455353204F425441493C
:103670004E4544004143434553532044454E49453C
:02368000440004
:107E0000112484B714BE81FFF0D085E080938100F7
:107E100082E08093C00088E18093C10086E0809377
:107E2000C20080E18093C4008EE0C9D0259A86E02C
:107E300020E33CEF91E0309385002093840096BBD3
:107E4000B09BFECF1D9AA8958150A9F7CC24DD24C4
:107E500088248394B5E0AB2EA1E19A2EF3E0BF2EE7
:107E6000A2D0813461F49FD0082FAFD0023811F036
:107E7000013811F484E001C083E08DD089C08234E0
:107E800011F484E103C0853419F485E0A6D080C0E4
:107E9000853579F488D0E82EFF2485D0082F10E0AE
:107EA000102F00270E291F29000F111F8ED06801E7
:107EB0006FC0863521F484E090D080E0DECF843638
:107EC00009F040C070D06FD0082F6DD080E0C81688
:107ED00080E7D80618F4F601B7BEE895C0E0D1E017
:107EE00062D089930C17E1F7F0E0CF16F0E7DF06D8
:107EF00018F0F601B7BEE89568D007B600FCFDCFD4
:107F0000A601A0E0B1E02C9130E011968C91119780
:107F100090E0982F8827822B932B1296FA010C0160
:107F200087BEE89511244E5F5F4FF1E0A038BF0790
:107F300051F7F601A7BEE89507B600FCFDCF97BE46
:107F4000E89526C08437B1F42ED02DD0F82E2BD052
:107F50003CD0F601EF2C8F010F5F1F4F84911BD097
:107F6000EA94F801C1F70894C11CD11CFA94CF0C13
:107F7000D11C0EC0853739F428D08EE10CD085E9AC
:107F80000AD08FE07ACF813511F488E018D01DD067
:107F900080E101D065CF982F8091C00085FFFCCF94
:107FA0009093C60008958091C00087FFFCCF809118
:107FB000C00084FD01C0A8958091C6000895E0E648
:107FC000F0E098E1908380830895EDDF803219F02E
:107FD00088E0F5DFFFCF84E1DECF1F93182FE3DFCA
:107FE0001150E9F7F2DF1F91089580E0E8DFEE27F6
:047FF000FF270994CA
:027FFE00040479
:00000001FF
